{
  "transactions": [
    {
      "hash": "0x8cb02fc8168f8f1e8de7d292114aee94f193836593f36a89a66022cebfa319cd",
      "transactionType": "CALL",
      "contractName": null,
      "contractAddress": "0x974c5bcc975a045f492d8935870f6037602c469f",
      "function": "mintNft(string)",
      "arguments": [
        "ipfs://bafybeig37ioir76s7mg5oobetncojcm3c3hxasyd4rvid4jqhy4gkaheg4/?filename=0-PUG.json"
      ],
      "transaction": {
        "from": "0x0abc0cfa05c66a1d13bb67a31c3d93a0d8daacbe",
        "to": "0x974c5bcc975a045f492d8935870f6037602c469f",
        "gas": "0x40fd9",
        "value": "0x0",
        "input": "0xda86f4a900000000000000000000000000000000000000000000000000000000000000200000000000000000000000000000000000000000000000000000000000000057697066733a2f2f62616679626569673337696f6972373673376d67356f6f6265746e636f6a636d3363336878617379643472766964346a71687934676b61686567342f3f66696c656e616d653d302d5055472e6a736f6e000000000000000000",
        "nonce": "0x14",
        "chainId": "0xaa36a7"
      },
      "additionalContracts": [],
      "isFixedGasLimit": false
    }
  ],
  "receipts": [
    {
      "status": "0x1",
      "cumulativeGasUsed": "0x7c666a",
      "logs": [
        {
          "address": "0x974c5bcc975a045f492d8935870f6037602c469f",
          "topics": [
            "0xddf252ad1be2c89b69c2b068fc378daa952ba7f163c4a11628f55a4df523b3ef",
            "0x0000000000000000000000000000000000000000000000000000000000000000",
            "0x0000000000000000000000000abc0cfa05c66a1d13bb67a31c3d93a0d8daacbe",
            "0x0000000000000000000000000000000000000000000000000000000000000000"
          ],
          "data": "0x",
          "blockHash": "0x9491e955f45338fc803b0e0417e75b19e71c1844539bb83c3e35bdc351685fb6",
          "blockNumber": "0x6a3854",
          "transactionHash": "0x8cb02fc8168f8f1e8de7d292114aee94f193836593f36a89a66022cebfa319cd",
          "transactionIndex": "0x62",
          "logIndex": "0x3e",
          "removed": false
        }
      ],
      "logsBloom": "0x00000000000000000000000000000000000000000000000000000000000000004000000010000000000000000000000000000000000000000000000000000000000000000000000000000008000000000000000000000000000000000000000000000000020000000000000000010800000000000000000000000010000000000000000000010000000000000000000000000000000000000000000000000000000000000000000000000000000000000000000000002000000000000000000000010002000000000000000000000000000000000000000000000000000020000000000000000000000000000000000000000000000000000000000000000000",
      "type": "0x2",
      "transactionHash": "0x8cb02fc8168f8f1e8de7d292114aee94f193836593f36a89a66022cebfa319cd",
      "transactionIndex": "0x62",
      "blockHash": "0x9491e955f45338fc803b0e0417e75b19e71c1844539bb83c3e35bdc351685fb6",
      "blockNumber": "0x6a3854",
      "gasUsed": "0x2c702",
      "effectiveGasPrice": "0x170311bf2",
      "from": "0x0abc0cfa05c66a1d13bb67a31c3d93a0d8daacbe",
      "to": "0x974c5bcc975a045f492d8935870f6037602c469f",
      "contractAddress": null
    }
  ],
  "libraries": [],
  "pending": [],
  "returns": {},
  "timestamp": 1730095927,
  "chain": 11155111,
  "commit": "ae1c935"
}